{
  "_format": "hh-sol-artifact-1",
  "contractName": "SubscriptionFacilitator",
  "sourceName": "contracts/SubscriptionFacilitator.sol",
  "abi": [
    {
      "inputs": [
        {
          "internalType": "address",
          "name": "_treasury",
          "type": "address"
        },
        {
          "internalType": "address",
          "name": "_usdc",
          "type": "address"
        }
      ],
      "stateMutability": "nonpayable",
      "type": "constructor"
    },
    {
      "anonymous": false,
      "inputs": [
        {
          "indexed": true,
          "internalType": "address",
          "name": "oldOwner",
          "type": "address"
        },
        {
          "indexed": true,
          "internalType": "address",
          "name": "newOwner",
          "type": "address"
        }
      ],
      "name": "OwnershipTransferred",
      "type": "event"
    },
    {
      "anonymous": false,
      "inputs": [
        {
          "indexed": true,
          "internalType": "address",
          "name": "user",
          "type": "address"
        },
        {
          "indexed": false,
          "internalType": "uint256",
          "name": "amount",
          "type": "uint256"
        }
      ],
      "name": "SubscriptionCharged",
      "type": "event"
    },
    {
      "anonymous": false,
      "inputs": [
        {
          "indexed": true,
          "internalType": "address",
          "name": "user",
          "type": "address"
        },
        {
          "indexed": false,
          "internalType": "uint256",
          "name": "totalAllowance",
          "type": "uint256"
        },
        {
          "indexed": false,
          "internalType": "uint256",
          "name": "firstCharge",
          "type": "uint256"
        }
      ],
      "name": "SubscriptionSetup",
      "type": "event"
    },
    {
      "anonymous": false,
      "inputs": [
        {
          "indexed": true,
          "internalType": "address",
          "name": "oldTreasury",
          "type": "address"
        },
        {
          "indexed": true,
          "internalType": "address",
          "name": "newTreasury",
          "type": "address"
        }
      ],
      "name": "TreasuryUpdated",
      "type": "event"
    },
    {
      "inputs": [
        {
          "internalType": "address",
          "name": "user",
          "type": "address"
        },
        {
          "internalType": "uint256",
          "name": "amount",
          "type": "uint256"
        }
      ],
      "name": "chargeSubscription",
      "outputs": [],
      "stateMutability": "nonpayable",
      "type": "function"
    },
    {
      "inputs": [],
      "name": "owner",
      "outputs": [
        {
          "internalType": "address",
          "name": "",
          "type": "address"
        }
      ],
      "stateMutability": "view",
      "type": "function"
    },
    {
      "inputs": [
        {
          "internalType": "address",
          "name": "_treasury",
          "type": "address"
        }
      ],
      "name": "setTreasury",
      "outputs": [],
      "stateMutability": "nonpayable",
      "type": "function"
    },
    {
      "inputs": [
        {
          "internalType": "address",
          "name": "user",
          "type": "address"
        },
        {
          "internalType": "uint256",
          "name": "totalAllowance",
          "type": "uint256"
        },
        {
          "internalType": "uint256",
          "name": "deadline",
          "type": "uint256"
        },
        {
          "internalType": "uint8",
          "name": "v",
          "type": "uint8"
        },
        {
          "internalType": "bytes32",
          "name": "r",
          "type": "bytes32"
        },
        {
          "internalType": "bytes32",
          "name": "s",
          "type": "bytes32"
        },
        {
          "internalType": "uint256",
          "name": "firstMonthCharge",
          "type": "uint256"
        }
      ],
      "name": "setupAndCharge",
      "outputs": [],
      "stateMutability": "nonpayable",
      "type": "function"
    },
    {
      "inputs": [
        {
          "internalType": "address",
          "name": "newOwner",
          "type": "address"
        }
      ],
      "name": "transferOwnership",
      "outputs": [],
      "stateMutability": "nonpayable",
      "type": "function"
    },
    {
      "inputs": [],
      "name": "treasury",
      "outputs": [
        {
          "internalType": "address",
          "name": "",
          "type": "address"
        }
      ],
      "stateMutability": "view",
      "type": "function"
    },
    {
      "inputs": [],
      "name": "usdc",
      "outputs": [
        {
          "internalType": "address",
          "name": "",
          "type": "address"
        }
      ],
      "stateMutability": "view",
      "type": "function"
    }
  ],
  "bytecode": "0x60a060405234801561001057600080fd5b50604051610a53380380610a5383398101604081905261002f91610111565b6001600160a01b03821661007d5760405162461bcd60e51b815260206004820152601060248201526f496e76616c696420747265617375727960801b60448201526064015b60405180910390fd5b6001600160a01b0381166100c25760405162461bcd60e51b815260206004820152600c60248201526b496e76616c6964205553444360a01b6044820152606401610074565b60008054336001600160a01b031991821617909155600180549091166001600160a01b0393841617905516608052610144565b80516001600160a01b038116811461010c57600080fd5b919050565b6000806040838503121561012457600080fd5b61012d836100f5565b915061013b602084016100f5565b90509250929050565b6080516108e06101736000396000818160ae015281816102260152818161046e01526104f901526108e06000f3fe608060405234801561001057600080fd5b506004361061007c5760003560e01c806361d027b31161005b57806361d027b3146100ec5780638da5cb5b146100ff578063f0f4426014610112578063f2fde38b1461012557600080fd5b8062e8b5f7146100815780633696257e146100965780633e413bee146100a9575b600080fd5b61009461008f3660046107b0565b610138565b005b6100946100a43660046107da565b610320565b6100d07f000000000000000000000000000000000000000000000000000000000000000081565b6040516001600160a01b03909116815260200160405180910390f35b6001546100d0906001600160a01b031681565b6000546100d0906001600160a01b031681565b610094610120366004610843565b6105f9565b610094610133366004610843565b6106c7565b6000546001600160a01b0316331461016b5760405162461bcd60e51b815260040161016290610865565b60405180910390fd5b6001600160a01b0382166101b05760405162461bcd60e51b815260206004820152600c60248201526b24b73b30b634b2103ab9b2b960a11b6044820152606401610162565b600081116101f55760405162461bcd60e51b81526020600482015260126024820152710416d6f756e74206d757374206265203e20360741b6044820152606401610162565b6001546040516323b872dd60e01b81526001600160a01b0384811660048301529182166024820152604481018390527f0000000000000000000000000000000000000000000000000000000000000000909116906323b872dd906064016020604051808303816000875af1158015610271573d6000803e3d6000fd5b505050506040513d601f19601f820116820180604052508101906102959190610888565b6102d95760405162461bcd60e51b815260206004820152601560248201527414995b995dd85b0818da185c99d94819985a5b1959605a1b6044820152606401610162565b816001600160a01b03167f6de812ac52f2e762c18dd0b2737a440548066df1c7e99ac4de0242490dc65c1a8260405161031491815260200190565b60405180910390a25050565b6000546001600160a01b0316331461034a5760405162461bcd60e51b815260040161016290610865565b6001600160a01b03871661038f5760405162461bcd60e51b815260206004820152600c60248201526b24b73b30b634b2103ab9b2b960a11b6044820152606401610162565b600081116103d45760405162461bcd60e51b81526020600482015260126024820152710436861726765206d757374206265203e20360741b6044820152606401610162565b858111156104245760405162461bcd60e51b815260206004820152601860248201527f436861726765206578636565647320616c6c6f77616e636500000000000000006044820152606401610162565b60405163d505accf60e01b81526001600160a01b038881166004830152306024830152604482018890526064820187905260ff8616608483015260a4820185905260c482018490527f0000000000000000000000000000000000000000000000000000000000000000169063d505accf9060e401600060405180830381600087803b1580156104b257600080fd5b505af11580156104c6573d6000803e3d6000fd5b50506001546040516323b872dd60e01b81526001600160a01b038b811660048301529182166024820152604481018590527f000000000000000000000000000000000000000000000000000000000000000090911692506323b872dd91506064016020604051808303816000875af1158015610546573d6000803e3d6000fd5b505050506040513d601f19601f8201168201806040525081019061056a9190610888565b6105ac5760405162461bcd60e51b8152602060048201526013602482015272119a5c9cdd0818da185c99d94819985a5b1959606a1b6044820152606401610162565b60408051878152602081018390526001600160a01b038916917fbc878f7ae5df7e6dc187659f05e0e882c326351d525a7f1e662e5e94aa4a1b35910160405180910390a250505050505050565b6000546001600160a01b031633146106235760405162461bcd60e51b815260040161016290610865565b6001600160a01b03811661066b5760405162461bcd60e51b815260206004820152600f60248201526e496e76616c6964206164647265737360881b6044820152606401610162565b6001546040516001600160a01b038084169216907f4ab5be82436d353e61ca18726e984e561f5c1cc7c6d38b29d2553c790434705a90600090a3600180546001600160a01b0319166001600160a01b0392909216919091179055565b6000546001600160a01b031633146106f15760405162461bcd60e51b815260040161016290610865565b6001600160a01b0381166107395760405162461bcd60e51b815260206004820152600f60248201526e496e76616c6964206164647265737360881b6044820152606401610162565b600080546040516001600160a01b03808516939216917f8be0079c531659141344cd1fd0a4f28419497f9722a3daafe3b4186f6b6457e091a3600080546001600160a01b0319166001600160a01b0392909216919091179055565b80356001600160a01b03811681146107ab57600080fd5b919050565b600080604083850312156107c357600080fd5b6107cc83610794565b946020939093013593505050565b600080600080600080600060e0888a0312156107f557600080fd5b6107fe88610794565b96506020880135955060408801359450606088013560ff8116811461082257600080fd5b9699959850939660808101359560a0820135955060c0909101359350915050565b60006020828403121561085557600080fd5b61085e82610794565b9392505050565b6020808252600990820152682737ba1037bbb732b960b91b604082015260600190565b60006020828403121561089a57600080fd5b8151801515811461085e57600080fdfea26469706673582212205ac5f2de1bf11b05738c17a4878a0b7aa57995b40a9c2908e591783f3d2ac41664736f6c63430008140033",
  "linkReferences": {},
  "deployedLinkReferences": {}
}