{
  "_format": "hh-sol-artifact-1",
  "contractName": "SubscriptionFacilitator",
  "sourceName": "contracts/SubscriptionFacilitator.sol",
  "abi": [
    {
      "inputs": [
        {
          "internalType": "address",
          "name": "_treasury",
          "type": "address"
        },
        {
          "internalType": "address",
          "name": "_usdc",
          "type": "address"
        }
      ],
      "stateMutability": "nonpayable",
      "type": "constructor"
    },
    {
      "anonymous": false,
      "inputs": [
        {
          "indexed": true,
          "internalType": "address",
          "name": "oldOwner",
          "type": "address"
        },
        {
          "indexed": true,
          "internalType": "address",
          "name": "newOwner",
          "type": "address"
        }
      ],
      "name": "OwnershipTransferred",
      "type": "event"
    },
    {
      "anonymous": false,
      "inputs": [
        {
          "indexed": true,
          "internalType": "address",
          "name": "user",
          "type": "address"
        },
        {
          "indexed": false,
          "internalType": "uint256",
          "name": "amount",
          "type": "uint256"
        }
      ],
      "name": "SubscriptionCharged",
      "type": "event"
    },
    {
      "anonymous": false,
      "inputs": [
        {
          "indexed": true,
          "internalType": "address",
          "name": "user",
          "type": "address"
        },
        {
          "indexed": false,
          "internalType": "uint256",
          "name": "totalAllowance",
          "type": "uint256"
        },
        {
          "indexed": false,
          "internalType": "uint256",
          "name": "firstCharge",
          "type": "uint256"
        }
      ],
      "name": "SubscriptionSetup",
      "type": "event"
    },
    {
      "anonymous": false,
      "inputs": [
        {
          "indexed": true,
          "internalType": "address",
          "name": "oldTreasury",
          "type": "address"
        },
        {
          "indexed": true,
          "internalType": "address",
          "name": "newTreasury",
          "type": "address"
        }
      ],
      "name": "TreasuryUpdated",
      "type": "event"
    },
    {
      "inputs": [
        {
          "internalType": "address",
          "name": "user",
          "type": "address"
        },
        {
          "internalType": "uint256",
          "name": "amount",
          "type": "uint256"
        }
      ],
      "name": "chargeSubscription",
      "outputs": [],
      "stateMutability": "nonpayable",
      "type": "function"
    },
    {
      "inputs": [],
      "name": "owner",
      "outputs": [
        {
          "internalType": "address",
          "name": "",
          "type": "address"
        }
      ],
      "stateMutability": "view",
      "type": "function"
    },
    {
      "inputs": [
        {
          "internalType": "address",
          "name": "_treasury",
          "type": "address"
        }
      ],
      "name": "setTreasury",
      "outputs": [],
      "stateMutability": "nonpayable",
      "type": "function"
    },
    {
      "inputs": [
        {
          "internalType": "address",
          "name": "user",
          "type": "address"
        },
        {
          "internalType": "uint256",
          "name": "totalAllowance",
          "type": "uint256"
        },
        {
          "internalType": "uint256",
          "name": "deadline",
          "type": "uint256"
        },
        {
          "internalType": "uint8",
          "name": "v",
          "type": "uint8"
        },
        {
          "internalType": "bytes32",
          "name": "r",
          "type": "bytes32"
        },
        {
          "internalType": "bytes32",
          "name": "s",
          "type": "bytes32"
        },
        {
          "internalType": "uint256",
          "name": "firstMonthCharge",
          "type": "uint256"
        }
      ],
      "name": "setupAndCharge",
      "outputs": [],
      "stateMutability": "nonpayable",
      "type": "function"
    },
    {
      "inputs": [
        {
          "internalType": "address",
          "name": "newOwner",
          "type": "address"
        }
      ],
      "name": "transferOwnership",
      "outputs": [],
      "stateMutability": "nonpayable",
      "type": "function"
    },
    {
      "inputs": [],
      "name": "treasury",
      "outputs": [
        {
          "internalType": "address",
          "name": "",
          "type": "address"
        }
      ],
      "stateMutability": "view",
      "type": "function"
    },
    {
      "inputs": [],
      "name": "usdc",
      "outputs": [
        {
          "internalType": "address",
          "name": "",
          "type": "address"
        }
      ],
      "stateMutability": "view",
      "type": "function"
    }
  ],
  "bytecode": "0x60a060405234801561000f575f80fd5b50604051610a24380380610a2483398101604081905261002e9161010e565b6001600160a01b03821661007c5760405162461bcd60e51b815260206004820152601060248201526f496e76616c696420747265617375727960801b60448201526064015b60405180910390fd5b6001600160a01b0381166100c15760405162461bcd60e51b815260206004820152600c60248201526b496e76616c6964205553444360a01b6044820152606401610073565b5f8054336001600160a01b031991821617909155600180549091166001600160a01b039384161790551660805261013f565b80516001600160a01b0381168114610109575f80fd5b919050565b5f806040838503121561011f575f80fd5b610128836100f3565b9150610136602084016100f3565b90509250929050565b6080516108b961016b5f395f818160aa0152818161021f0152818161046201526104e801526108b95ff3fe608060405234801561000f575f80fd5b5060043610610079575f3560e01c806361d027b31161005857806361d027b3146100e85780638da5cb5b146100fb578063f0f442601461010d578063f2fde38b14610120575f80fd5b8062e8b5f71461007d5780633696257e146100925780633e413bee146100a5575b5f80fd5b61009061008b366004610796565b610133565b005b6100906100a03660046107be565b610316565b6100cc7f000000000000000000000000000000000000000000000000000000000000000081565b6040516001600160a01b03909116815260200160405180910390f35b6001546100cc906001600160a01b031681565b5f546100cc906001600160a01b031681565b61009061011b366004610821565b6105e5565b61009061012e366004610821565b6106b1565b5f546001600160a01b031633146101655760405162461bcd60e51b815260040161015c90610841565b60405180910390fd5b6001600160a01b0382166101aa5760405162461bcd60e51b815260206004820152600c60248201526b24b73b30b634b2103ab9b2b960a11b604482015260640161015c565b5f81116101ee5760405162461bcd60e51b81526020600482015260126024820152710416d6f756e74206d757374206265203e20360741b604482015260640161015c565b6001546040516323b872dd60e01b81526001600160a01b0384811660048301529182166024820152604481018390527f0000000000000000000000000000000000000000000000000000000000000000909116906323b872dd906064016020604051808303815f875af1158015610267573d5f803e3d5ffd5b505050506040513d601f19601f8201168201806040525081019061028b9190610864565b6102cf5760405162461bcd60e51b815260206004820152601560248201527414995b995dd85b0818da185c99d94819985a5b1959605a1b604482015260640161015c565b816001600160a01b03167f6de812ac52f2e762c18dd0b2737a440548066df1c7e99ac4de0242490dc65c1a8260405161030a91815260200190565b60405180910390a25050565b5f546001600160a01b0316331461033f5760405162461bcd60e51b815260040161015c90610841565b6001600160a01b0387166103845760405162461bcd60e51b815260206004820152600c60248201526b24b73b30b634b2103ab9b2b960a11b604482015260640161015c565b5f81116103c85760405162461bcd60e51b81526020600482015260126024820152710436861726765206d757374206265203e20360741b604482015260640161015c565b858111156104185760405162461bcd60e51b815260206004820152601860248201527f436861726765206578636565647320616c6c6f77616e63650000000000000000604482015260640161015c565b60405163d505accf60e01b81526001600160a01b038881166004830152306024830152604482018890526064820187905260ff8616608483015260a4820185905260c482018490527f0000000000000000000000000000000000000000000000000000000000000000169063d505accf9060e4015f604051808303815f87803b1580156104a3575f80fd5b505af11580156104b5573d5f803e3d5ffd5b50506001546040516323b872dd60e01b81526001600160a01b038b811660048301529182166024820152604481018590527f000000000000000000000000000000000000000000000000000000000000000090911692506323b872dd91506064016020604051808303815f875af1158015610532573d5f803e3d5ffd5b505050506040513d601f19601f820116820180604052508101906105569190610864565b6105985760405162461bcd60e51b8152602060048201526013602482015272119a5c9cdd0818da185c99d94819985a5b1959606a1b604482015260640161015c565b60408051878152602081018390526001600160a01b038916917fbc878f7ae5df7e6dc187659f05e0e882c326351d525a7f1e662e5e94aa4a1b35910160405180910390a250505050505050565b5f546001600160a01b0316331461060e5760405162461bcd60e51b815260040161015c90610841565b6001600160a01b0381166106565760405162461bcd60e51b815260206004820152600f60248201526e496e76616c6964206164647265737360881b604482015260640161015c565b6001546040516001600160a01b038084169216907f4ab5be82436d353e61ca18726e984e561f5c1cc7c6d38b29d2553c790434705a905f90a3600180546001600160a01b0319166001600160a01b0392909216919091179055565b5f546001600160a01b031633146106da5760405162461bcd60e51b815260040161015c90610841565b6001600160a01b0381166107225760405162461bcd60e51b815260206004820152600f60248201526e496e76616c6964206164647265737360881b604482015260640161015c565b5f80546040516001600160a01b03808516939216917f8be0079c531659141344cd1fd0a4f28419497f9722a3daafe3b4186f6b6457e091a35f80546001600160a01b0319166001600160a01b0392909216919091179055565b80356001600160a01b0381168114610791575f80fd5b919050565b5f80604083850312156107a7575f80fd5b6107b08361077b565b946020939093013593505050565b5f805f805f805f60e0888a0312156107d4575f80fd5b6107dd8861077b565b96506020880135955060408801359450606088013560ff81168114610800575f80fd5b9699959850939660808101359560a0820135955060c0909101359350915050565b5f60208284031215610831575f80fd5b61083a8261077b565b9392505050565b6020808252600990820152682737ba1037bbb732b960b91b604082015260600190565b5f60208284031215610874575f80fd5b8151801515811461083a575f80fdfea2646970667358221220240396b6d5bce8f9cab4cbedef0a4fa0db25cf16c91063722ab8bfae4458d82264736f6c634300081a0033",
  "linkReferences": {},
  "deployedLinkReferences": {}
}