{
  "_format": "hh-sol-artifact-1",
  "contractName": "P402Escrow",
  "sourceName": "contracts/P402Escrow.sol",
  "abi": [
    {
      "inputs": [
        {
          "internalType": "address",
          "name": "_treasury",
          "type": "address"
        }
      ],
      "stateMutability": "nonpayable",
      "type": "constructor"
    },
    {
      "anonymous": false,
      "inputs": [
        {
          "indexed": true,
          "internalType": "bytes32",
          "name": "id",
          "type": "bytes32"
        },
        {
          "indexed": true,
          "internalType": "address",
          "name": "provider",
          "type": "address"
        }
      ],
      "name": "EscrowAccepted",
      "type": "event"
    },
    {
      "anonymous": false,
      "inputs": [
        {
          "indexed": true,
          "internalType": "bytes32",
          "name": "id",
          "type": "bytes32"
        }
      ],
      "name": "EscrowCancelled",
      "type": "event"
    },
    {
      "anonymous": false,
      "inputs": [
        {
          "indexed": true,
          "internalType": "bytes32",
          "name": "id",
          "type": "bytes32"
        },
        {
          "indexed": true,
          "internalType": "address",
          "name": "payer",
          "type": "address"
        },
        {
          "indexed": true,
          "internalType": "address",
          "name": "provider",
          "type": "address"
        },
        {
          "indexed": false,
          "internalType": "uint256",
          "name": "amount",
          "type": "uint256"
        },
        {
          "indexed": false,
          "internalType": "string",
          "name": "referenceId",
          "type": "string"
        }
      ],
      "name": "EscrowCreated",
      "type": "event"
    },
    {
      "anonymous": false,
      "inputs": [
        {
          "indexed": true,
          "internalType": "bytes32",
          "name": "id",
          "type": "bytes32"
        },
        {
          "indexed": false,
          "internalType": "bytes32",
          "name": "proofHash",
          "type": "bytes32"
        }
      ],
      "name": "EscrowDelivered",
      "type": "event"
    },
    {
      "anonymous": false,
      "inputs": [
        {
          "indexed": true,
          "internalType": "bytes32",
          "name": "id",
          "type": "bytes32"
        },
        {
          "indexed": true,
          "internalType": "address",
          "name": "payer",
          "type": "address"
        }
      ],
      "name": "EscrowDisputed",
      "type": "event"
    },
    {
      "anonymous": false,
      "inputs": [
        {
          "indexed": true,
          "internalType": "bytes32",
          "name": "id",
          "type": "bytes32"
        }
      ],
      "name": "EscrowExpired",
      "type": "event"
    },
    {
      "anonymous": false,
      "inputs": [
        {
          "indexed": true,
          "internalType": "bytes32",
          "name": "id",
          "type": "bytes32"
        },
        {
          "indexed": false,
          "internalType": "uint256",
          "name": "amount",
          "type": "uint256"
        }
      ],
      "name": "EscrowFunded",
      "type": "event"
    },
    {
      "anonymous": false,
      "inputs": [
        {
          "indexed": true,
          "internalType": "bytes32",
          "name": "id",
          "type": "bytes32"
        }
      ],
      "name": "EscrowInProgress",
      "type": "event"
    },
    {
      "anonymous": false,
      "inputs": [
        {
          "indexed": true,
          "internalType": "bytes32",
          "name": "id",
          "type": "bytes32"
        },
        {
          "indexed": true,
          "internalType": "address",
          "name": "winner",
          "type": "address"
        },
        {
          "indexed": false,
          "internalType": "uint256",
          "name": "amount",
          "type": "uint256"
        }
      ],
      "name": "EscrowResolved",
      "type": "event"
    },
    {
      "anonymous": false,
      "inputs": [
        {
          "indexed": true,
          "internalType": "bytes32",
          "name": "id",
          "type": "bytes32"
        },
        {
          "indexed": true,
          "internalType": "address",
          "name": "provider",
          "type": "address"
        },
        {
          "indexed": false,
          "internalType": "uint256",
          "name": "netAmount",
          "type": "uint256"
        },
        {
          "indexed": false,
          "internalType": "uint256",
          "name": "feeAmount",
          "type": "uint256"
        }
      ],
      "name": "EscrowSettled",
      "type": "event"
    },
    {
      "inputs": [
        {
          "internalType": "bytes32",
          "name": "id",
          "type": "bytes32"
        }
      ],
      "name": "accept",
      "outputs": [],
      "stateMutability": "nonpayable",
      "type": "function"
    },
    {
      "inputs": [
        {
          "internalType": "bytes32",
          "name": "id",
          "type": "bytes32"
        }
      ],
      "name": "cancel",
      "outputs": [],
      "stateMutability": "nonpayable",
      "type": "function"
    },
    {
      "inputs": [
        {
          "internalType": "string",
          "name": "referenceId",
          "type": "string"
        },
        {
          "internalType": "address",
          "name": "provider",
          "type": "address"
        },
        {
          "internalType": "address",
          "name": "token",
          "type": "address"
        },
        {
          "internalType": "uint256",
          "name": "netAmount",
          "type": "uint256"
        }
      ],
      "name": "create",
      "outputs": [
        {
          "internalType": "bytes32",
          "name": "id",
          "type": "bytes32"
        }
      ],
      "stateMutability": "nonpayable",
      "type": "function"
    },
    {
      "inputs": [
        {
          "internalType": "bytes32",
          "name": "id",
          "type": "bytes32"
        },
        {
          "internalType": "bytes32",
          "name": "proofHash",
          "type": "bytes32"
        }
      ],
      "name": "deliver",
      "outputs": [],
      "stateMutability": "nonpayable",
      "type": "function"
    },
    {
      "inputs": [
        {
          "internalType": "bytes32",
          "name": "id",
          "type": "bytes32"
        }
      ],
      "name": "dispute",
      "outputs": [],
      "stateMutability": "nonpayable",
      "type": "function"
    },
    {
      "inputs": [],
      "name": "disputeWindowSeconds",
      "outputs": [
        {
          "internalType": "uint256",
          "name": "",
          "type": "uint256"
        }
      ],
      "stateMutability": "view",
      "type": "function"
    },
    {
      "inputs": [
        {
          "internalType": "bytes32",
          "name": "",
          "type": "bytes32"
        }
      ],
      "name": "escrows",
      "outputs": [
        {
          "internalType": "bytes32",
          "name": "id",
          "type": "bytes32"
        },
        {
          "internalType": "address",
          "name": "payer",
          "type": "address"
        },
        {
          "internalType": "address",
          "name": "provider",
          "type": "address"
        },
        {
          "internalType": "address",
          "name": "token",
          "type": "address"
        },
        {
          "internalType": "uint256",
          "name": "amount",
          "type": "uint256"
        },
        {
          "internalType": "uint256",
          "name": "feeAmount",
          "type": "uint256"
        },
        {
          "internalType": "enum P402Escrow.EscrowState",
          "name": "state",
          "type": "uint8"
        },
        {
          "internalType": "bytes32",
          "name": "proofHash",
          "type": "bytes32"
        },
        {
          "internalType": "uint256",
          "name": "createdAt",
          "type": "uint256"
        },
        {
          "internalType": "uint256",
          "name": "deliveredAt",
          "type": "uint256"
        },
        {
          "internalType": "uint256",
          "name": "disputeWindow",
          "type": "uint256"
        },
        {
          "internalType": "string",
          "name": "referenceId",
          "type": "string"
        }
      ],
      "stateMutability": "view",
      "type": "function"
    },
    {
      "inputs": [
        {
          "internalType": "bytes32",
          "name": "id",
          "type": "bytes32"
        }
      ],
      "name": "expire",
      "outputs": [],
      "stateMutability": "nonpayable",
      "type": "function"
    },
    {
      "inputs": [],
      "name": "feeBasisPoints",
      "outputs": [
        {
          "internalType": "uint256",
          "name": "",
          "type": "uint256"
        }
      ],
      "stateMutability": "view",
      "type": "function"
    },
    {
      "inputs": [
        {
          "internalType": "bytes32",
          "name": "id",
          "type": "bytes32"
        }
      ],
      "name": "fund",
      "outputs": [],
      "stateMutability": "nonpayable",
      "type": "function"
    },
    {
      "inputs": [
        {
          "internalType": "bytes32",
          "name": "id",
          "type": "bytes32"
        }
      ],
      "name": "getEscrow",
      "outputs": [
        {
          "components": [
            {
              "internalType": "bytes32",
              "name": "id",
              "type": "bytes32"
            },
            {
              "internalType": "address",
              "name": "payer",
              "type": "address"
            },
            {
              "internalType": "address",
              "name": "provider",
              "type": "address"
            },
            {
              "internalType": "address",
              "name": "token",
              "type": "address"
            },
            {
              "internalType": "uint256",
              "name": "amount",
              "type": "uint256"
            },
            {
              "internalType": "uint256",
              "name": "feeAmount",
              "type": "uint256"
            },
            {
              "internalType": "enum P402Escrow.EscrowState",
              "name": "state",
              "type": "uint8"
            },
            {
              "internalType": "bytes32",
              "name": "proofHash",
              "type": "bytes32"
            },
            {
              "internalType": "uint256",
              "name": "createdAt",
              "type": "uint256"
            },
            {
              "internalType": "uint256",
              "name": "deliveredAt",
              "type": "uint256"
            },
            {
              "internalType": "uint256",
              "name": "disputeWindow",
              "type": "uint256"
            },
            {
              "internalType": "string",
              "name": "referenceId",
              "type": "string"
            }
          ],
          "internalType": "struct P402Escrow.Escrow",
          "name": "",
          "type": "tuple"
        }
      ],
      "stateMutability": "view",
      "type": "function"
    },
    {
      "inputs": [
        {
          "internalType": "bytes32",
          "name": "id",
          "type": "bytes32"
        }
      ],
      "name": "isDisputable",
      "outputs": [
        {
          "internalType": "bool",
          "name": "",
          "type": "bool"
        }
      ],
      "stateMutability": "view",
      "type": "function"
    },
    {
      "inputs": [
        {
          "internalType": "bytes32",
          "name": "id",
          "type": "bytes32"
        }
      ],
      "name": "isReleasable",
      "outputs": [
        {
          "internalType": "bool",
          "name": "",
          "type": "bool"
        }
      ],
      "stateMutability": "view",
      "type": "function"
    },
    {
      "inputs": [],
      "name": "owner",
      "outputs": [
        {
          "internalType": "address",
          "name": "",
          "type": "address"
        }
      ],
      "stateMutability": "view",
      "type": "function"
    },
    {
      "inputs": [],
      "name": "paused",
      "outputs": [
        {
          "internalType": "bool",
          "name": "",
          "type": "bool"
        }
      ],
      "stateMutability": "view",
      "type": "function"
    },
    {
      "inputs": [
        {
          "internalType": "bytes32",
          "name": "id",
          "type": "bytes32"
        }
      ],
      "name": "release",
      "outputs": [],
      "stateMutability": "nonpayable",
      "type": "function"
    },
    {
      "inputs": [
        {
          "internalType": "bytes32",
          "name": "id",
          "type": "bytes32"
        },
        {
          "internalType": "bool",
          "name": "toProvider",
          "type": "bool"
        }
      ],
      "name": "resolve",
      "outputs": [],
      "stateMutability": "nonpayable",
      "type": "function"
    },
    {
      "inputs": [
        {
          "internalType": "uint256",
          "name": "seconds_",
          "type": "uint256"
        }
      ],
      "name": "setDisputeWindow",
      "outputs": [],
      "stateMutability": "nonpayable",
      "type": "function"
    },
    {
      "inputs": [
        {
          "internalType": "uint256",
          "name": "bps",
          "type": "uint256"
        }
      ],
      "name": "setFeeBasisPoints",
      "outputs": [],
      "stateMutability": "nonpayable",
      "type": "function"
    },
    {
      "inputs": [
        {
          "internalType": "bool",
          "name": "_paused",
          "type": "bool"
        }
      ],
      "name": "setPaused",
      "outputs": [],
      "stateMutability": "nonpayable",
      "type": "function"
    },
    {
      "inputs": [
        {
          "internalType": "address",
          "name": "_treasury",
          "type": "address"
        }
      ],
      "name": "setTreasury",
      "outputs": [],
      "stateMutability": "nonpayable",
      "type": "function"
    },
    {
      "inputs": [
        {
          "internalType": "bytes32",
          "name": "id",
          "type": "bytes32"
        }
      ],
      "name": "startWork",
      "outputs": [],
      "stateMutability": "nonpayable",
      "type": "function"
    },
    {
      "inputs": [
        {
          "internalType": "address",
          "name": "newOwner",
          "type": "address"
        }
      ],
      "name": "transferOwnership",
      "outputs": [],
      "stateMutability": "nonpayable",
      "type": "function"
    },
    {
      "inputs": [],
      "name": "treasury",
      "outputs": [
        {
          "internalType": "address",
          "name": "",
          "type": "address"
        }
      ],
      "stateMutability": "view",
      "type": "function"
    }
  ],
  "bytecode": "0x608060405260646002556202a3006003556004805460ff1916905534801561002657600080fd5b5060405162002302380380620023028339810160408190526100479161007a565b60008054336001600160a01b031991821617909155600180549091166001600160a01b03929092169190911790556100aa565b60006020828403121561008c57600080fd5b81516001600160a01b03811681146100a357600080fd5b9392505050565b61224880620000ba6000396000f3fe608060405234801561001057600080fd5b50600436106101585760003560e01c80639d7a949a116100c3578063c4d252f51161007c578063c4d252f5146102ee578063c644179814610301578063e4725ba114610314578063f023b81114610327578063f0f4426014610347578063f2fde38b1461035a57600080fd5b80639d7a949a14610286578063a86f9d9e14610299578063add98c70146102ac578063b6686d77146102bf578063b8606eef146102d2578063bf14c119146102db57600080fd5b8063332226d011610115578063332226d0146102025780635c975abb146102155780635ec7ad011461022257806361d027b31461023557806367d42a8b146102605780638da5cb5b1461027357600080fd5b80630165dd271461015d57806301f7897614610172578063154b71ae1461019a57806316c38b3c146101ad578063232877d0146101c05780632d83549c146101d7575b600080fd5b61017061016b366004611bab565b61036d565b005b610185610180366004611bab565b6103e1565b60405190151581526020015b60405180910390f35b6101856101a8366004611bab565b610431565b6101706101bb366004611bd5565b61047f565b6101c960035481565b604051908152602001610191565b6101ea6101e5366004611bab565b6104bc565b6040516101919c9b9a99989796959493929190611c70565b610170610210366004611bab565b6105bb565b6004546101859060ff1681565b6101c9610230366004611d0f565b61063c565b600154610248906001600160a01b031681565b6040516001600160a01b039091168152602001610191565b61017061026e366004611bab565b6109bf565b600054610248906001600160a01b031681565b610170610294366004611bab565b610abf565b6101706102a7366004611da9565b610bd6565b6101706102ba366004611bab565b610d73565b6101706102cd366004611dd9565b610eae565b6101c960025481565b6101706102e9366004611bab565b611046565b6101706102fc366004611bab565b6111ff565b61017061030f366004611bab565b61138b565b610170610322366004611bab565b611596565b61033a610335366004611bab565b61169b565b6040516101919190611dfb565b610170610355366004611eca565b61185a565b610170610368366004611eca565b6118eb565b6000546001600160a01b031633146103a05760405162461bcd60e51b815260040161039790611ee5565b60405180910390fd5b6103e88111156103dc5760405162461bcd60e51b81526020600482015260076024820152664d61782031302560c81b6044820152606401610397565b600255565b60008181526005602052604081206004600682015460ff16600981111561040a5761040a611bf2565b14801561042a575080600a015481600901546104269190611f1e565b4211155b9392505050565b60008181526005602052604081206004600682015460ff16600981111561045a5761045a611bf2565b14801561042a575080600a015481600901546104769190611f1e565b42119392505050565b6000546001600160a01b031633146104a95760405162461bcd60e51b815260040161039790611ee5565b6004805460ff1916911515919091179055565b600560208190526000918252604090912080546001820154600283015460038401546004850154958501546006860154600787015460088801546009890154600a8a0154600b8b0180549a9c6001600160a01b039a8b169c998b169b98909a169998969760ff9096169694959394929391929161053890611f37565b80601f016020809104026020016040519081016040528092919081815260200182805461056490611f37565b80156105b15780601f10610586576101008083540402835291602001916105b1565b820191906000526020600020905b81548152906001019060200180831161059457829003601f168201915b505050505090508c565b6000546001600160a01b031633146105e55760405162461bcd60e51b815260040161039790611ee5565b610e1081101580156105fa575062093a808111155b6106375760405162461bcd60e51b815260206004820152600e60248201526d496e76616c69642077696e646f7760901b6044820152606401610397565b600355565b60045460009060ff16156106625760405162461bcd60e51b815260040161039790611f71565b6001600160a01b0384161580159061068357506001600160a01b0384163314155b6106c25760405162461bcd60e51b815260206004820152601060248201526f24b73b30b634b210383937bb34b232b960811b6044820152606401610397565b600082116107075760405162461bcd60e51b81526020600482015260126024820152710416d6f756e74206d757374206265203e20360741b6044820152606401610397565b60006127106002548461071a9190611f9a565b6107249190611fb1565b905060006107328285611f1e565b9050878733884260405160200161074d959493929190611fd3565b60408051601f19818403018152918152815160209283012060008181526005909352912060080154909350156107bd5760405162461bcd60e51b8152602060048201526015602482015274457363726f7720616c72656164792065786973747360581b6044820152606401610397565b604051806101800160405280848152602001336001600160a01b03168152602001876001600160a01b03168152602001866001600160a01b031681526020018281526020018381526020016000600981111561081b5761081b611bf2565b81526020016000801b815260200142815260200160008152602001600354815260200189898080601f0160208091040260200160405190810160405280939291908181526020018383808284376000920182905250939094525050858152600560208181526040928390208551815590850151600180830180546001600160a01b03199081166001600160a01b039485161790915594870151600284018054871691841691909117905560608701516003840180549096169216919091179093556080850151600482015560a08501519181019190915560c08401516006820180549294509092909160ff19169083600981111561091b5761091b611bf2565b021790555060e0820151600782015561010082015160088201556101208201516009820155610140820151600a820155610160820151600b820190610960908261206b565b50905050856001600160a01b0316336001600160a01b0316847fecfc64e6b5d00db90b689255403357841334dfc94584137e88c526dc65cbb713848c8c6040516109ac9392919061212b565b60405180910390a4505095945050505050565b60045460ff16156109e25760405162461bcd60e51b815260040161039790611f71565b8060048060008381526005602052604090206006015460ff166009811115610a0c57610a0c611bf2565b14610a295760405162461bcd60e51b815260040161039790612161565b60008381526005602052604081206001810154600a820154600983015492936001600160a01b03909216331492610a609190611f1e565b421190508180610a6d5750805b610aae5760405162461bcd60e51b815260206004820152601260248201527115da5b991bddc81b9bdd08195b185c1cd95960721b6044820152606401610397565b610ab78661197c565b505050505050565b60045460ff1615610ae25760405162461bcd60e51b815260040161039790611f71565b8060028060008381526005602052604090206006015460ff166009811115610b0c57610b0c611bf2565b14610b295760405162461bcd60e51b815260040161039790612161565b600083815260056020526040902060018101546001600160a01b0316331480610b5e575060028101546001600160a01b031633145b610b965760405162461bcd60e51b81526020600482015260096024820152684e6f7420706172747960b81b6044820152606401610397565b60068101805460ff1916600317905560405184907f2ab2c4eb289a35b5254baf68fad97c4cb75ef354242a49dad0320a4acfa3202e90600090a250505050565b6000546001600160a01b03163314610c005760405162461bcd60e51b815260040161039790611ee5565b8160068060008381526005602052604090206006015460ff166009811115610c2a57610c2a611bf2565b14610c475760405162461bcd60e51b815260040161039790612161565b60008481526005602052604090208315610c6957610c648561197c565b610d6c565b60068101805460ff191660071790556003810154600182015460048084015460405163a9059cbb60e01b81526001600160a01b03938416928101929092526024820152600092919091169063a9059cbb906044016020604051808303816000875af1158015610cdc573d6000803e3d6000fd5b505050506040513d601f19601f82011682018060405250810190610d009190612198565b905080610d1f5760405162461bcd60e51b8152600401610397906121b5565b600182015460048301546040519081526001600160a01b039091169087907f8df4c20a47ffffc9a340e18951dee52a7e347e2237eb449182677824d6a1175d9060200160405180910390a3505b5050505050565b60045460ff1615610d965760405162461bcd60e51b815260040161039790611f71565b8060048060008381526005602052604090206006015460ff166009811115610dc057610dc0611bf2565b14610ddd5760405162461bcd60e51b815260040161039790612161565b600083815260056020526040902060018101546001600160a01b03163314610e175760405162461bcd60e51b8152600401610397906121dc565b80600a01548160090154610e2b9190611f1e565b421115610e6b5760405162461bcd60e51b815260206004820152600e60248201526d15da5b991bddc8195b185c1cd95960921b6044820152606401610397565b6006818101805460ff19169091179055604051339085907fccaaba882d50ea23faa59a43ea26f9a73da17d2148dec254bc998b1bd5f94db890600090a350505050565b60045460ff1615610ed15760405162461bcd60e51b815260040161039790611f71565b60008281526005602052604090206002600682015460ff166009811115610efa57610efa611bf2565b1480610f1e57506003600682015460ff166009811115610f1c57610f1c611bf2565b145b610f6a5760405162461bcd60e51b815260206004820152601860248201527f4e6f7420696e2064656c6976657261626c6520737461746500000000000000006044820152606401610397565b60028101546001600160a01b03163314610fb55760405162461bcd60e51b815260206004820152600c60248201526b2737ba10383937bb34b232b960a11b6044820152606401610397565b81610ff05760405162461bcd60e51b815260206004820152600b60248201526a22b6b83a3c90383937b7b360a91b6044820152606401610397565b60068101805460ff191660041790556007810182905542600982015560405182815283907f8f493910d5e5865064f37f2188c1b12df51978c9a7ae3a2d81a3eeb7a6f6001e9060200160405180910390a2505050565b60045460ff16156110695760405162461bcd60e51b815260040161039790611f71565b8060008060008381526005602052604090206006015460ff16600981111561109357611093611bf2565b146110b05760405162461bcd60e51b815260040161039790612161565b600083815260056020526040902060018101546001600160a01b031633146110ea5760405162461bcd60e51b8152600401610397906121dc565b60038101546004808301546040516323b872dd60e01b8152339281019290925230602483015260448201526000916001600160a01b0316906323b872dd906064016020604051808303816000875af115801561114a573d6000803e3d6000fd5b505050506040513d601f19601f8201168201806040525081019061116e9190612198565b9050806111af5760405162461bcd60e51b815260206004820152600f60248201526e151c985b9cd9995c8819985a5b1959608a1b6044820152606401610397565b60068201805460ff19166001179055600482015460405190815285907f08bc5e5162ba9d1a558b2d254f4739d54c8d7051230419652b328670bd68fc379060200160405180910390a25050505050565b60045460ff16156112225760405162461bcd60e51b815260040161039790611f71565b8060018060008381526005602052604090206006015460ff16600981111561124c5761124c611bf2565b146112695760405162461bcd60e51b815260040161039790612161565b600083815260056020526040902060018101546001600160a01b031633146112a35760405162461bcd60e51b8152600401610397906121dc565b60068101805460ff191660091790556003810154600182015460048084015460405163a9059cbb60e01b81526001600160a01b03938416928101929092526024820152600092919091169063a9059cbb906044016020604051808303816000875af1158015611316573d6000803e3d6000fd5b505050506040513d601f19601f8201168201806040525081019061133a9190612198565b9050806113595760405162461bcd60e51b8152600401610397906121b5565b60405185907f642e58efcd0db9e3e5171b8f71a4655b98647c098a6aa596308df9e8037ecc0990600090a25050505050565b60045460ff16156113ae5760405162461bcd60e51b815260040161039790611f71565b60008181526005602052604090206001600682015460ff1660098111156113d7576113d7611bf2565b14806113fb57506002600682015460ff1660098111156113f9576113f9611bf2565b145b8061141e57506003600682015460ff16600981111561141c5761141c611bf2565b145b61145a5760405162461bcd60e51b815260206004820152600d60248201526c43616e6e6f742065787069726560981b6044820152606401610397565b600881015461146c9062093a80611f1e565b42116114b05760405162461bcd60e51b8152602060048201526013602482015272546f6f206561726c7920746f2065787069726560681b6044820152606401610397565b60068101805460ff191660081790556003810154600182015460048084015460405163a9059cbb60e01b81526001600160a01b03938416928101929092526024820152600092919091169063a9059cbb906044016020604051808303816000875af1158015611523573d6000803e3d6000fd5b505050506040513d601f19601f820116820180604052508101906115479190612198565b9050806115665760405162461bcd60e51b8152600401610397906121b5565b60405183907ffd63c2d06f6af2f98284a6e4b0c851d121468f8bec9ee071ac5ec0b14a8af33590600090a2505050565b60045460ff16156115b95760405162461bcd60e51b815260040161039790611f71565b8060018060008381526005602052604090206006015460ff1660098111156115e3576115e3611bf2565b146116005760405162461bcd60e51b815260040161039790612161565b600083815260056020526040902060028101546001600160a01b031633146116595760405162461bcd60e51b815260206004820152600c60248201526b2737ba10383937bb34b232b960a11b6044820152606401610397565b60068101805460ff19166002179055604051339085907f09e3c1f415e68cb2e57081704a3e322baf38e1a7801c39b8b36762be4e4dc4f990600090a350505050565b6117026040805161018081018252600080825260208201819052918101829052606081018290526080810182905260a081018290529060c0820190815260200160008019168152602001600081526020016000815260200160008152602001606081525090565b6000828152600560208181526040928390208351610180810185528154815260018201546001600160a01b0390811693820193909352600282015483169481019490945260038101549091166060840152600481015460808401529081015460a0830152600681015460c083019060ff16600981111561178457611784611bf2565b600981111561179557611795611bf2565b8152602001600782015481526020016008820154815260200160098201548152602001600a8201548152602001600b820180546117d190611f37565b80601f01602080910402602001604051908101604052809291908181526020018280546117fd90611f37565b801561184a5780601f1061181f5761010080835404028352916020019161184a565b820191906000526020600020905b81548152906001019060200180831161182d57829003601f168201915b5050505050815250509050919050565b6000546001600160a01b031633146118845760405162461bcd60e51b815260040161039790611ee5565b6001600160a01b0381166118c95760405162461bcd60e51b815260206004820152600c60248201526b5a65726f206164647265737360a01b6044820152606401610397565b600180546001600160a01b0319166001600160a01b0392909216919091179055565b6000546001600160a01b031633146119155760405162461bcd60e51b815260040161039790611ee5565b6001600160a01b03811661195a5760405162461bcd60e51b815260206004820152600c60248201526b5a65726f206164647265737360a01b6044820152606401610397565b600080546001600160a01b0319166001600160a01b0392909216919091179055565b6000818152600560208190526040822060068101805460ff1916831790559081015460048201549192916119b091906121ff565b6003830154600284015460405163a9059cbb60e01b81526001600160a01b0391821660048201526024810184905292935060009291169063a9059cbb906044016020604051808303816000875af1158015611a0f573d6000803e3d6000fd5b505050506040513d601f19601f82011682018060405250810190611a339190612198565b905080611a825760405162461bcd60e51b815260206004820152601860248201527f50726f7669646572207472616e73666572206661696c656400000000000000006044820152606401610397565b6003830154600154600585015460405163a9059cbb60e01b81526001600160a01b0392831660048201526024810191909152600092919091169063a9059cbb906044016020604051808303816000875af1158015611ae4573d6000803e3d6000fd5b505050506040513d601f19601f82011682018060405250810190611b089190612198565b905080611b4d5760405162461bcd60e51b8152602060048201526013602482015272119959481d1c985b9cd9995c8819985a5b1959606a1b6044820152606401610397565b600284015460058501546040516001600160a01b039092169187917fc8892f35ea03b8126b3acc12e33b2a0a59827977f990e258079a64d49b2b9c2b91611b9c91888252602082015260400190565b60405180910390a35050505050565b600060208284031215611bbd57600080fd5b5035919050565b8015158114611bd257600080fd5b50565b600060208284031215611be757600080fd5b813561042a81611bc4565b634e487b7160e01b600052602160045260246000fd5b600a8110611c2657634e487b7160e01b600052602160045260246000fd5b9052565b6000815180845260005b81811015611c5057602081850181015186830182015201611c34565b506000602082860101526020601f19601f83011685010191505092915050565b8c81526001600160a01b038c811660208301528b811660408301528a1660608201526080810189905260a081018890526000610180611cb260c084018a611c08565b8760e084015286610100840152856101208401528461014084015280610160840152611ce081840185611c2a565b9f9e505050505050505050505050505050565b80356001600160a01b0381168114611d0a57600080fd5b919050565b600080600080600060808688031215611d2757600080fd5b853567ffffffffffffffff80821115611d3f57600080fd5b818801915088601f830112611d5357600080fd5b813581811115611d6257600080fd5b896020828501011115611d7457600080fd5b602092830197509550611d8a9188019050611cf3565b9250611d9860408701611cf3565b949793965091946060013592915050565b60008060408385031215611dbc57600080fd5b823591506020830135611dce81611bc4565b809150509250929050565b60008060408385031215611dec57600080fd5b50508035926020909101359150565b602081528151602082015260006020830151611e2260408401826001600160a01b03169052565b5060408301516001600160a01b03811660608401525060608301516001600160a01b038116608084015250608083015160a083015260a083015160c083015260c0830151611e7360e0840182611c08565b5060e08301516101008381019190915283015161012080840191909152830151610140808401919091528301516101608084019190915283015161018080840152611ec26101a0840182611c2a565b949350505050565b600060208284031215611edc57600080fd5b61042a82611cf3565b6020808252600990820152682737ba1037bbb732b960b91b604082015260600190565b634e487b7160e01b600052601160045260246000fd5b80820180821115611f3157611f31611f08565b92915050565b600181811c90821680611f4b57607f821691505b602082108103611f6b57634e487b7160e01b600052602260045260246000fd5b50919050565b6020808252600f908201526e10dbdb9d1c9858dd081c185d5cd959608a1b604082015260600190565b8082028115828204841417611f3157611f31611f08565b600082611fce57634e487b7160e01b600052601260045260246000fd5b500490565b848682376bffffffffffffffffffffffff19606094851b8116959091019485529190921b1660148301526028820152604801919050565b634e487b7160e01b600052604160045260246000fd5b601f82111561206657600081815260208120601f850160051c810160208610156120475750805b601f850160051c820191505b81811015610ab757828155600101612053565b505050565b815167ffffffffffffffff8111156120855761208561200a565b612099816120938454611f37565b84612020565b602080601f8311600181146120ce57600084156120b65750858301515b600019600386901b1c1916600185901b178555610ab7565b600085815260208120601f198616915b828110156120fd578886015182559484019460019091019084016120de565b508582101561211b5787850151600019600388901b60f8161c191681555b5050505050600190811b01905550565b83815260406020820152816040820152818360608301376000818301606090810191909152601f909201601f1916010192915050565b60208082526018908201527f496e76616c6964207374617465207472616e736974696f6e0000000000000000604082015260600190565b6000602082840312156121aa57600080fd5b815161042a81611bc4565b6020808252600d908201526c1499599d5b990819985a5b1959609a1b604082015260600190565b6020808252600990820152682737ba103830bcb2b960b91b604082015260600190565b81810381811115611f3157611f31611f0856fea26469706673582212200df029876f441281dd52e112756f537ee9ac94a5aebb17c4ee312c033c1457d564736f6c63430008140033",
  "linkReferences": {},
  "deployedLinkReferences": {}
}