{
  "_format": "hh-sol-artifact-1",
  "contractName": "P402Settlement",
  "sourceName": "contracts/P402Settlement.sol",
  "abi": [
    {
      "inputs": [
        {
          "internalType": "address",
          "name": "_treasury",
          "type": "address"
        }
      ],
      "stateMutability": "nonpayable",
      "type": "constructor"
    },
    {
      "anonymous": false,
      "inputs": [
        {
          "indexed": false,
          "internalType": "uint256",
          "name": "oldFee",
          "type": "uint256"
        },
        {
          "indexed": false,
          "internalType": "uint256",
          "name": "newFee",
          "type": "uint256"
        }
      ],
      "name": "FeeUpdated",
      "type": "event"
    },
    {
      "anonymous": false,
      "inputs": [
        {
          "indexed": true,
          "internalType": "address",
          "name": "sender",
          "type": "address"
        },
        {
          "indexed": true,
          "internalType": "address",
          "name": "recipient",
          "type": "address"
        },
        {
          "indexed": true,
          "internalType": "address",
          "name": "token",
          "type": "address"
        },
        {
          "indexed": false,
          "internalType": "uint256",
          "name": "netAmount",
          "type": "uint256"
        },
        {
          "indexed": false,
          "internalType": "uint256",
          "name": "feeAmount",
          "type": "uint256"
        },
        {
          "indexed": false,
          "internalType": "string",
          "name": "referenceId",
          "type": "string"
        }
      ],
      "name": "PaymentSettled",
      "type": "event"
    },
    {
      "anonymous": false,
      "inputs": [
        {
          "indexed": false,
          "internalType": "address",
          "name": "oldTreasury",
          "type": "address"
        },
        {
          "indexed": false,
          "internalType": "address",
          "name": "newTreasury",
          "type": "address"
        }
      ],
      "name": "TreasuryUpdated",
      "type": "event"
    },
    {
      "inputs": [],
      "name": "feeBasisPoints",
      "outputs": [
        {
          "internalType": "uint256",
          "name": "",
          "type": "uint256"
        }
      ],
      "stateMutability": "view",
      "type": "function"
    },
    {
      "inputs": [],
      "name": "owner",
      "outputs": [
        {
          "internalType": "address",
          "name": "",
          "type": "address"
        }
      ],
      "stateMutability": "view",
      "type": "function"
    },
    {
      "inputs": [],
      "name": "paused",
      "outputs": [
        {
          "internalType": "bool",
          "name": "",
          "type": "bool"
        }
      ],
      "stateMutability": "view",
      "type": "function"
    },
    {
      "inputs": [
        {
          "internalType": "address",
          "name": "token",
          "type": "address"
        },
        {
          "internalType": "uint256",
          "name": "netAmount",
          "type": "uint256"
        },
        {
          "internalType": "address",
          "name": "recipient",
          "type": "address"
        },
        {
          "internalType": "string",
          "name": "referenceId",
          "type": "string"
        }
      ],
      "name": "pay",
      "outputs": [],
      "stateMutability": "nonpayable",
      "type": "function"
    },
    {
      "inputs": [
        {
          "internalType": "uint256",
          "name": "_bps",
          "type": "uint256"
        }
      ],
      "name": "setFee",
      "outputs": [],
      "stateMutability": "nonpayable",
      "type": "function"
    },
    {
      "inputs": [
        {
          "internalType": "bool",
          "name": "_paused",
          "type": "bool"
        }
      ],
      "name": "setPaused",
      "outputs": [],
      "stateMutability": "nonpayable",
      "type": "function"
    },
    {
      "inputs": [
        {
          "internalType": "address",
          "name": "_treasury",
          "type": "address"
        }
      ],
      "name": "setTreasury",
      "outputs": [],
      "stateMutability": "nonpayable",
      "type": "function"
    },
    {
      "inputs": [],
      "name": "treasury",
      "outputs": [
        {
          "internalType": "address",
          "name": "",
          "type": "address"
        }
      ],
      "stateMutability": "view",
      "type": "function"
    },
    {
      "inputs": [
        {
          "internalType": "address",
          "name": "token",
          "type": "address"
        }
      ],
      "name": "withdraw",
      "outputs": [],
      "stateMutability": "nonpayable",
      "type": "function"
    }
  ],
  "bytecode": "0x608060405260646002556003805460ff19169055348015601d575f80fd5b50604051610a14380380610a14833981016040819052603a91606b565b5f8054336001600160a01b031991821617909155600180549091166001600160a01b03929092169190911790556096565b5f60208284031215607a575f80fd5b81516001600160a01b0381168114608f575f80fd5b9392505050565b610971806100a35f395ff3fe608060405234801561000f575f80fd5b5060043610610090575f3560e01c806361d027b31161006357806361d027b3146100f157806369fe0e2d1461011c5780638da5cb5b1461012f578063b8606eef14610141578063f0f4426014610158575f80fd5b806316c38b3c146100945780631a681c0d146100a957806351cff8d9146100bc5780635c975abb146100cf575b5f80fd5b6100a76100a2366004610745565b61016b565b005b6100a76100b7366004610782565b6101b0565b6100a76100ca366004610817565b610441565b6003546100dc9060ff1681565b60405190151581526020015b60405180910390f35b600154610104906001600160a01b031681565b6040516001600160a01b0390911681526020016100e8565b6100a761012a366004610830565b6105a6565b5f54610104906001600160a01b031681565b61014a60025481565b6040519081526020016100e8565b6100a7610166366004610817565b61065b565b5f546001600160a01b0316331461019d5760405162461bcd60e51b815260040161019490610847565b60405180910390fd5b6003805460ff1916911515919091179055565b60035460ff16156101f55760405162461bcd60e51b815260206004820152600f60248201526e10dbdb9d1c9858dd081c185d5cd959608a1b6044820152606401610194565b6001600160a01b03831661023f5760405162461bcd60e51b8152602060048201526011602482015270125b9d985b1a59081c9958da5c1a595b9d607a1b6044820152606401610194565b5f61271060025486610251919061087e565b61025b919061089b565b90505f61026882876108ba565b6040516323b872dd60e01b8152336004820152306024820152604481018290529091506001600160a01b038816906323b872dd906064016020604051808303815f875af11580156102bb573d5f803e3d5ffd5b505050506040513d601f19601f820116820180604052508101906102df91906108cd565b6103215760405162461bcd60e51b8152602060048201526013602482015272151c985b9cd9995c919c9bdb4819985a5b1959606a1b6044820152606401610194565b60405163a9059cbb60e01b81526001600160a01b0386811660048301526024820188905288169063a9059cbb906044016020604051808303815f875af115801561036d573d5f803e3d5ffd5b505050506040513d601f19601f8201168201806040525081019061039191906108cd565b6103dd5760405162461bcd60e51b815260206004820152601c60248201527f5472616e7366657220746f20726563697069656e74206661696c6564000000006044820152606401610194565b866001600160a01b0316856001600160a01b0316336001600160a01b03167f9a1cb4b91df06dc66a65a327111025072213050ce193a93051f201862a5916708986898960405161043094939291906108e8565b60405180910390a450505050505050565b6040516370a0823160e01b81523060048201525f906001600160a01b038316906370a0823190602401602060405180830381865afa158015610485573d5f803e3d5ffd5b505050506040513d601f19601f820116820180604052508101906104a99190610924565b90505f81116104f05760405162461bcd60e51b81526020600482015260136024820152724e6f206665657320746f20776974686472617760681b6044820152606401610194565b60015460405163a9059cbb60e01b81526001600160a01b039182166004820152602481018390529083169063a9059cbb906044016020604051808303815f875af1158015610540573d5f803e3d5ffd5b505050506040513d601f19601f8201168201806040525081019061056491906108cd565b6105a25760405162461bcd60e51b815260206004820152600f60248201526e15da5d1a191c985dc819985a5b1959608a1b6044820152606401610194565b5050565b5f546001600160a01b031633146105cf5760405162461bcd60e51b815260040161019490610847565b6103e881111561061a5760405162461bcd60e51b81526020600482015260166024820152754665652063617020657863656564656420283130252960501b6044820152606401610194565b60025460408051918252602082018390527f528d9479e9f9889a87a3c30c7f7ba537e5e59c4c85a37733b16e57c62df61302910160405180910390a1600255565b5f546001600160a01b031633146106845760405162461bcd60e51b815260040161019490610847565b6001600160a01b0381166106cc5760405162461bcd60e51b815260206004820152600f60248201526e496e76616c6964206164647265737360881b6044820152606401610194565b600154604080516001600160a01b03928316815291831660208301527f4ab5be82436d353e61ca18726e984e561f5c1cc7c6d38b29d2553c790434705a910160405180910390a1600180546001600160a01b0319166001600160a01b0392909216919091179055565b8015158114610742575f80fd5b50565b5f60208284031215610755575f80fd5b813561076081610735565b9392505050565b80356001600160a01b038116811461077d575f80fd5b919050565b5f805f805f60808688031215610796575f80fd5b61079f86610767565b9450602086013593506107b460408701610767565b9250606086013567ffffffffffffffff8111156107cf575f80fd5b8601601f810188136107df575f80fd5b803567ffffffffffffffff8111156107f5575f80fd5b886020828401011115610806575f80fd5b959894975092955050506020019190565b5f60208284031215610827575f80fd5b61076082610767565b5f60208284031215610840575f80fd5b5035919050565b6020808252600990820152682737ba1037bbb732b960b91b604082015260600190565b634e487b7160e01b5f52601160045260245ffd5b80820281158282048414176108955761089561086a565b92915050565b5f826108b557634e487b7160e01b5f52601260045260245ffd5b500490565b808201808211156108955761089561086a565b5f602082840312156108dd575f80fd5b815161076081610735565b84815283602082015260606040820152816060820152818360808301375f818301608090810191909152601f909201601f191601019392505050565b5f60208284031215610934575f80fd5b505191905056fea264697066735822122011a90e03d82bb96b27d6b87c8874026cc31ca49374c50e467fcbb3d9d15b92cf64736f6c634300081a0033",
  "linkReferences": {},
  "deployedLinkReferences": {}
}