{
  "_format": "hh-sol-artifact-1",
  "contractName": "P402Settlement",
  "sourceName": "contracts/P402Settlement.sol",
  "abi": [
    {
      "inputs": [
        {
          "internalType": "address",
          "name": "_treasury",
          "type": "address"
        }
      ],
      "stateMutability": "nonpayable",
      "type": "constructor"
    },
    {
      "anonymous": false,
      "inputs": [
        {
          "indexed": false,
          "internalType": "uint256",
          "name": "oldFee",
          "type": "uint256"
        },
        {
          "indexed": false,
          "internalType": "uint256",
          "name": "newFee",
          "type": "uint256"
        }
      ],
      "name": "FeeUpdated",
      "type": "event"
    },
    {
      "anonymous": false,
      "inputs": [
        {
          "indexed": true,
          "internalType": "address",
          "name": "sender",
          "type": "address"
        },
        {
          "indexed": true,
          "internalType": "address",
          "name": "recipient",
          "type": "address"
        },
        {
          "indexed": true,
          "internalType": "address",
          "name": "token",
          "type": "address"
        },
        {
          "indexed": false,
          "internalType": "uint256",
          "name": "netAmount",
          "type": "uint256"
        },
        {
          "indexed": false,
          "internalType": "uint256",
          "name": "feeAmount",
          "type": "uint256"
        },
        {
          "indexed": false,
          "internalType": "string",
          "name": "referenceId",
          "type": "string"
        }
      ],
      "name": "PaymentSettled",
      "type": "event"
    },
    {
      "anonymous": false,
      "inputs": [
        {
          "indexed": false,
          "internalType": "address",
          "name": "oldTreasury",
          "type": "address"
        },
        {
          "indexed": false,
          "internalType": "address",
          "name": "newTreasury",
          "type": "address"
        }
      ],
      "name": "TreasuryUpdated",
      "type": "event"
    },
    {
      "inputs": [],
      "name": "feeBasisPoints",
      "outputs": [
        {
          "internalType": "uint256",
          "name": "",
          "type": "uint256"
        }
      ],
      "stateMutability": "view",
      "type": "function"
    },
    {
      "inputs": [],
      "name": "owner",
      "outputs": [
        {
          "internalType": "address",
          "name": "",
          "type": "address"
        }
      ],
      "stateMutability": "view",
      "type": "function"
    },
    {
      "inputs": [],
      "name": "paused",
      "outputs": [
        {
          "internalType": "bool",
          "name": "",
          "type": "bool"
        }
      ],
      "stateMutability": "view",
      "type": "function"
    },
    {
      "inputs": [
        {
          "internalType": "address",
          "name": "token",
          "type": "address"
        },
        {
          "internalType": "uint256",
          "name": "netAmount",
          "type": "uint256"
        },
        {
          "internalType": "address",
          "name": "recipient",
          "type": "address"
        },
        {
          "internalType": "string",
          "name": "referenceId",
          "type": "string"
        }
      ],
      "name": "pay",
      "outputs": [],
      "stateMutability": "nonpayable",
      "type": "function"
    },
    {
      "inputs": [
        {
          "internalType": "uint256",
          "name": "_bps",
          "type": "uint256"
        }
      ],
      "name": "setFee",
      "outputs": [],
      "stateMutability": "nonpayable",
      "type": "function"
    },
    {
      "inputs": [
        {
          "internalType": "bool",
          "name": "_paused",
          "type": "bool"
        }
      ],
      "name": "setPaused",
      "outputs": [],
      "stateMutability": "nonpayable",
      "type": "function"
    },
    {
      "inputs": [
        {
          "internalType": "address",
          "name": "_treasury",
          "type": "address"
        }
      ],
      "name": "setTreasury",
      "outputs": [],
      "stateMutability": "nonpayable",
      "type": "function"
    },
    {
      "inputs": [],
      "name": "treasury",
      "outputs": [
        {
          "internalType": "address",
          "name": "",
          "type": "address"
        }
      ],
      "stateMutability": "view",
      "type": "function"
    },
    {
      "inputs": [
        {
          "internalType": "address",
          "name": "token",
          "type": "address"
        }
      ],
      "name": "withdraw",
      "outputs": [],
      "stateMutability": "nonpayable",
      "type": "function"
    }
  ],
  "bytecode": "0x608060405260646002556003805460ff1916905534801561001f57600080fd5b50604051610a50380380610a5083398101604081905261003e91610071565b60008054336001600160a01b031991821617909155600180549091166001600160a01b03929092169190911790556100a1565b60006020828403121561008357600080fd5b81516001600160a01b038116811461009a57600080fd5b9392505050565b6109a0806100b06000396000f3fe608060405234801561001057600080fd5b50600436106100935760003560e01c806361d027b31161006657806361d027b3146100f557806369fe0e2d146101205780638da5cb5b14610133578063b8606eef14610146578063f0f442601461015d57600080fd5b806316c38b3c146100985780631a681c0d146100ad57806351cff8d9146100c05780635c975abb146100d3575b600080fd5b6100ab6100a636600461075d565b610170565b005b6100ab6100bb36600461079d565b6101b6565b6100ab6100ce366004610838565b61044f565b6003546100e09060ff1681565b60405190151581526020015b60405180910390f35b600154610108906001600160a01b031681565b6040516001600160a01b0390911681526020016100ec565b6100ab61012e366004610853565b6105bb565b600054610108906001600160a01b031681565b61014f60025481565b6040519081526020016100ec565b6100ab61016b366004610838565b610671565b6000546001600160a01b031633146101a35760405162461bcd60e51b815260040161019a9061086c565b60405180910390fd5b6003805460ff1916911515919091179055565b60035460ff16156101fb5760405162461bcd60e51b815260206004820152600f60248201526e10dbdb9d1c9858dd081c185d5cd959608a1b604482015260640161019a565b6001600160a01b0383166102455760405162461bcd60e51b8152602060048201526011602482015270125b9d985b1a59081c9958da5c1a595b9d607a1b604482015260640161019a565b60006127106002548661025891906108a5565b61026291906108c2565b9050600061027082876108e4565b6040516323b872dd60e01b8152336004820152306024820152604481018290529091506001600160a01b038816906323b872dd906064016020604051808303816000875af11580156102c6573d6000803e3d6000fd5b505050506040513d601f19601f820116820180604052508101906102ea91906108f7565b61032c5760405162461bcd60e51b8152602060048201526013602482015272151c985b9cd9995c919c9bdb4819985a5b1959606a1b604482015260640161019a565b60405163a9059cbb60e01b81526001600160a01b0386811660048301526024820188905288169063a9059cbb906044016020604051808303816000875af115801561037b573d6000803e3d6000fd5b505050506040513d601f19601f8201168201806040525081019061039f91906108f7565b6103eb5760405162461bcd60e51b815260206004820152601c60248201527f5472616e7366657220746f20726563697069656e74206661696c656400000000604482015260640161019a565b866001600160a01b0316856001600160a01b0316336001600160a01b03167f9a1cb4b91df06dc66a65a327111025072213050ce193a93051f201862a5916708986898960405161043e9493929190610914565b60405180910390a450505050505050565b6040516370a0823160e01b81523060048201526000906001600160a01b038316906370a0823190602401602060405180830381865afa158015610496573d6000803e3d6000fd5b505050506040513d601f19601f820116820180604052508101906104ba9190610951565b9050600081116105025760405162461bcd60e51b81526020600482015260136024820152724e6f206665657320746f20776974686472617760681b604482015260640161019a565b60015460405163a9059cbb60e01b81526001600160a01b039182166004820152602481018390529083169063a9059cbb906044016020604051808303816000875af1158015610555573d6000803e3d6000fd5b505050506040513d601f19601f8201168201806040525081019061057991906108f7565b6105b75760405162461bcd60e51b815260206004820152600f60248201526e15da5d1a191c985dc819985a5b1959608a1b604482015260640161019a565b5050565b6000546001600160a01b031633146105e55760405162461bcd60e51b815260040161019a9061086c565b6103e88111156106305760405162461bcd60e51b81526020600482015260166024820152754665652063617020657863656564656420283130252960501b604482015260640161019a565b60025460408051918252602082018390527f528d9479e9f9889a87a3c30c7f7ba537e5e59c4c85a37733b16e57c62df61302910160405180910390a1600255565b6000546001600160a01b0316331461069b5760405162461bcd60e51b815260040161019a9061086c565b6001600160a01b0381166106e35760405162461bcd60e51b815260206004820152600f60248201526e496e76616c6964206164647265737360881b604482015260640161019a565b600154604080516001600160a01b03928316815291831660208301527f4ab5be82436d353e61ca18726e984e561f5c1cc7c6d38b29d2553c790434705a910160405180910390a1600180546001600160a01b0319166001600160a01b0392909216919091179055565b801515811461075a57600080fd5b50565b60006020828403121561076f57600080fd5b813561077a8161074c565b9392505050565b80356001600160a01b038116811461079857600080fd5b919050565b6000806000806000608086880312156107b557600080fd5b6107be86610781565b9450602086013593506107d360408701610781565b9250606086013567ffffffffffffffff808211156107f057600080fd5b818801915088601f83011261080457600080fd5b81358181111561081357600080fd5b89602082850101111561082557600080fd5b9699959850939650602001949392505050565b60006020828403121561084a57600080fd5b61077a82610781565b60006020828403121561086557600080fd5b5035919050565b6020808252600990820152682737ba1037bbb732b960b91b604082015260600190565b634e487b7160e01b600052601160045260246000fd5b80820281158282048414176108bc576108bc61088f565b92915050565b6000826108df57634e487b7160e01b600052601260045260246000fd5b500490565b808201808211156108bc576108bc61088f565b60006020828403121561090957600080fd5b815161077a8161074c565b84815283602082015260606040820152816060820152818360808301376000818301608090810191909152601f909201601f191601019392505050565b60006020828403121561096357600080fd5b505191905056fea26469706673582212209ef34e167ad949d257a1782cee7774056802af378c13461b515ab0f7f9be413364736f6c63430008140033",
  "linkReferences": {},
  "deployedLinkReferences": {}
}